{
  "_format": "hh-sol-artifact-1",
  "contractName": "FileStorage",
  "sourceName": "contracts/Storage.sol",
  "abi": [
    {
      "inputs": [
        {
          "components": [
            {
              "internalType": "string",
              "name": "fileId",
              "type": "string"
            },
            {
              "internalType": "string",
              "name": "fileName",
              "type": "string"
            },
            {
              "internalType": "string",
              "name": "fileType",
              "type": "string"
            },
            {
              "internalType": "uint256",
              "name": "fileSize",
              "type": "uint256"
            },
            {
              "internalType": "string",
              "name": "fileOwner",
              "type": "string"
            },
            {
              "internalType": "uint256",
              "name": "fileCreated",
              "type": "uint256"
            }
          ],
          "internalType": "struct FileStorage.FileMetaData",
          "name": "file",
          "type": "tuple"
        }
      ],
      "name": "addFile",
      "outputs": [],
      "stateMutability": "nonpayable",
      "type": "function"
    },
    {
      "inputs": [
        {
          "internalType": "uint256",
          "name": "index",
          "type": "uint256"
        }
      ],
      "name": "deleteFile",
      "outputs": [],
      "stateMutability": "nonpayable",
      "type": "function"
    },
    {
      "inputs": [
        {
          "internalType": "address",
          "name": "addr",
          "type": "address"
        }
      ],
      "name": "enterAddress",
      "outputs": [],
      "stateMutability": "nonpayable",
      "type": "function"
    },
    {
      "inputs": [],
      "name": "getFileSize",
      "outputs": [
        {
          "internalType": "uint256",
          "name": "",
          "type": "uint256"
        }
      ],
      "stateMutability": "view",
      "type": "function"
    },
    {
      "inputs": [
        {
          "internalType": "uint256",
          "name": "start",
          "type": "uint256"
        },
        {
          "internalType": "uint256",
          "name": "end",
          "type": "uint256"
        }
      ],
      "name": "getFilesInRange",
      "outputs": [
        {
          "components": [
            {
              "internalType": "string",
              "name": "fileId",
              "type": "string"
            },
            {
              "internalType": "string",
              "name": "fileName",
              "type": "string"
            },
            {
              "internalType": "string",
              "name": "fileType",
              "type": "string"
            },
            {
              "internalType": "uint256",
              "name": "fileSize",
              "type": "uint256"
            },
            {
              "internalType": "string",
              "name": "fileOwner",
              "type": "string"
            },
            {
              "internalType": "uint256",
              "name": "fileCreated",
              "type": "uint256"
            }
          ],
          "internalType": "struct FileStorage.FileMetaData[]",
          "name": "",
          "type": "tuple[]"
        }
      ],
      "stateMutability": "view",
      "type": "function"
    }
  ],
  "bytecode": "0x608060405234801561001057600080fd5b506112fb806100206000396000f3fe608060405234801561001057600080fd5b50600436106100575760003560e01c80631322f7fa1461005c5780632108f9e31461007a57806377af7478146100aa578063c5b42006146100c6578063f6f9aaa8146100e2575b600080fd5b6100646100fe565b6040516100719190610aef565b60405180910390f35b610094600480360381019061008f9190610b4a565b610147565b6040516100a19190610d92565b60405180910390f35b6100c460048036038101906100bf9190611003565b610566565b005b6100e060048036038101906100db919061104c565b61065b565b005b6100fc60048036038101906100f791906110d7565b61092d565b005b60008060003373ffffffffffffffffffffffffffffffffffffffff1673ffffffffffffffffffffffffffffffffffffffff16815260200190815260200160002080549050905090565b606060008290506000803373ffffffffffffffffffffffffffffffffffffffff1673ffffffffffffffffffffffffffffffffffffffff168152602001908152602001600020805490508111156101dc576000803373ffffffffffffffffffffffffffffffffffffffff1673ffffffffffffffffffffffffffffffffffffffff1681526020019081526020016000208054905090505b600084826101ea9190611133565b905060008167ffffffffffffffff81111561020857610207610db9565b5b60405190808252806020026020018201604052801561024157816020015b61022e610930565b8152602001906001900390816102265790505b5090506000808790505b83821015610558576000803373ffffffffffffffffffffffffffffffffffffffff1673ffffffffffffffffffffffffffffffffffffffff16815260200190815260200160002081815481106102a3576102a2611167565b5b90600052602060002090600602016040518060c00160405290816000820180546102cc906111c5565b80601f01602080910402602001604051908101604052809291908181526020018280546102f8906111c5565b80156103455780601f1061031a57610100808354040283529160200191610345565b820191906000526020600020905b81548152906001019060200180831161032857829003601f168201915b5050505050815260200160018201805461035e906111c5565b80601f016020809104026020016040519081016040528092919081815260200182805461038a906111c5565b80156103d75780601f106103ac576101008083540402835291602001916103d7565b820191906000526020600020905b8154815290600101906020018083116103ba57829003601f168201915b505050505081526020016002820180546103f0906111c5565b80601f016020809104026020016040519081016040528092919081815260200182805461041c906111c5565b80156104695780601f1061043e57610100808354040283529160200191610469565b820191906000526020600020905b81548152906001019060200180831161044c57829003601f168201915b505050505081526020016003820154815260200160048201805461048c906111c5565b80601f01602080910402602001604051908101604052809291908181526020018280546104b8906111c5565b80156105055780601f106104da57610100808354040283529160200191610505565b820191906000526020600020905b8154815290600101906020018083116104e857829003601f168201915b5050505050815260200160058201548152505083838151811061052b5761052a611167565b5b602002602001018190525060018261054391906111f7565b915080806105509061124d565b91505061024b565b508194505050505092915050565b6000803373ffffffffffffffffffffffffffffffffffffffff1673ffffffffffffffffffffffffffffffffffffffff16815260200190815260200160002081908060018154018082558091505060019003906000526020600020906006020160009091909190915060008201518160000190805190602001906105ea929190610966565b506020820151816001019080519060200190610607929190610966565b506040820151816002019080519060200190610624929190610966565b5060608201518160030155608082015181600401908051906020019061064b929190610966565b5060a08201518160050155505050565b6000803373ffffffffffffffffffffffffffffffffffffffff1673ffffffffffffffffffffffffffffffffffffffff1681526020019081526020016000208054905081101561092a5760008190505b60016000803373ffffffffffffffffffffffffffffffffffffffff1673ffffffffffffffffffffffffffffffffffffffff168152602001908152602001600020805490506106f89190611133565b811015610871576000803373ffffffffffffffffffffffffffffffffffffffff1673ffffffffffffffffffffffffffffffffffffffff16815260200190815260200160002060018261074a91906111f7565b8154811061075b5761075a611167565b5b90600052602060002090600602016000803373ffffffffffffffffffffffffffffffffffffffff1673ffffffffffffffffffffffffffffffffffffffff16815260200190815260200160002082815481106107b9576107b8611167565b5b906000526020600020906006020160008201816000019080546107db906111c5565b6107e69291906109ec565b5060018201816001019080546107fb906111c5565b6108069291906109ec565b50600282018160020190805461081b906111c5565b6108269291906109ec565b50600382015481600301556004820181600401908054610845906111c5565b6108509291906109ec565b506005820154816005015590505080806108699061124d565b9150506106aa565b506000803373ffffffffffffffffffffffffffffffffffffffff1673ffffffffffffffffffffffffffffffffffffffff1681526020019081526020016000208054806108c0576108bf611296565b5b6001900381819060005260206000209060060201600080820160006108e59190610a79565b6001820160006108f59190610a79565b6002820160006109059190610a79565b600382016000905560048201600061091d9190610a79565b6005820160009055505090555b50565b50565b6040518060c001604052806060815260200160608152602001606081526020016000815260200160608152602001600081525090565b828054610972906111c5565b90600052602060002090601f01602090048101928261099457600085556109db565b82601f106109ad57805160ff19168380011785556109db565b828001600101855582156109db579182015b828111156109da5782518255916020019190600101906109bf565b5b5090506109e89190610ab9565b5090565b8280546109f8906111c5565b90600052602060002090601f016020900481019282610a1a5760008555610a68565b82601f10610a2b5780548555610a68565b82800160010185558215610a6857600052602060002091601f016020900482015b82811115610a67578254825591600101919060010190610a4c565b5b509050610a759190610ab9565b5090565b508054610a85906111c5565b6000825580601f10610a975750610ab6565b601f016020900490600052602060002090810190610ab59190610ab9565b5b50565b5b80821115610ad2576000816000905550600101610aba565b5090565b6000819050919050565b610ae981610ad6565b82525050565b6000602082019050610b046000830184610ae0565b92915050565b6000604051905090565b600080fd5b600080fd5b610b2781610ad6565b8114610b3257600080fd5b50565b600081359050610b4481610b1e565b92915050565b60008060408385031215610b6157610b60610b14565b5b6000610b6f85828601610b35565b9250506020610b8085828601610b35565b9150509250929050565b600081519050919050565b600082825260208201905092915050565b6000819050602082019050919050565b600081519050919050565b600082825260208201905092915050565b60005b83811015610bf0578082015181840152602081019050610bd5565b83811115610bff576000848401525b50505050565b6000601f19601f8301169050919050565b6000610c2182610bb6565b610c2b8185610bc1565b9350610c3b818560208601610bd2565b610c4481610c05565b840191505092915050565b610c5881610ad6565b82525050565b600060c0830160008301518482036000860152610c7b8282610c16565b91505060208301518482036020860152610c958282610c16565b91505060408301518482036040860152610caf8282610c16565b9150506060830151610cc46060860182610c4f565b5060808301518482036080860152610cdc8282610c16565b91505060a0830151610cf160a0860182610c4f565b508091505092915050565b6000610d088383610c5e565b905092915050565b6000602082019050919050565b6000610d2882610b8a565b610d328185610b95565b935083602082028501610d4485610ba6565b8060005b85811015610d805784840389528151610d618582610cfc565b9450610d6c83610d10565b925060208a01995050600181019050610d48565b50829750879550505050505092915050565b60006020820190508181036000830152610dac8184610d1d565b905092915050565b600080fd5b7f4e487b7100000000000000000000000000000000000000000000000000000000600052604160045260246000fd5b610df182610c05565b810181811067ffffffffffffffff82111715610e1057610e0f610db9565b5b80604052505050565b6000610e23610b0a565b9050610e2f8282610de8565b919050565b600080fd5b600080fd5b600080fd5b600067ffffffffffffffff821115610e5e57610e5d610db9565b5b610e6782610c05565b9050602081019050919050565b82818337600083830152505050565b6000610e96610e9184610e43565b610e19565b905082815260208101848484011115610eb257610eb1610e3e565b5b610ebd848285610e74565b509392505050565b600082601f830112610eda57610ed9610e39565b5b8135610eea848260208601610e83565b91505092915050565b600060c08284031215610f0957610f08610db4565b5b610f1360c0610e19565b9050600082013567ffffffffffffffff811115610f3357610f32610e34565b5b610f3f84828501610ec5565b600083015250602082013567ffffffffffffffff811115610f6357610f62610e34565b5b610f6f84828501610ec5565b602083015250604082013567ffffffffffffffff811115610f9357610f92610e34565b5b610f9f84828501610ec5565b6040830152506060610fb384828501610b35565b606083015250608082013567ffffffffffffffff811115610fd757610fd6610e34565b5b610fe384828501610ec5565b60808301525060a0610ff784828501610b35565b60a08301525092915050565b60006020828403121561101957611018610b14565b5b600082013567ffffffffffffffff81111561103757611036610b19565b5b61104384828501610ef3565b91505092915050565b60006020828403121561106257611061610b14565b5b600061107084828501610b35565b91505092915050565b600073ffffffffffffffffffffffffffffffffffffffff82169050919050565b60006110a482611079565b9050919050565b6110b481611099565b81146110bf57600080fd5b50565b6000813590506110d1816110ab565b92915050565b6000602082840312156110ed576110ec610b14565b5b60006110fb848285016110c2565b91505092915050565b7f4e487b7100000000000000000000000000000000000000000000000000000000600052601160045260246000fd5b600061113e82610ad6565b915061114983610ad6565b92508282101561115c5761115b611104565b5b828203905092915050565b7f4e487b7100000000000000000000000000000000000000000000000000000000600052603260045260246000fd5b7f4e487b7100000000000000000000000000000000000000000000000000000000600052602260045260246000fd5b600060028204905060018216806111dd57607f821691505b602082108114156111f1576111f0611196565b5b50919050565b600061120282610ad6565b915061120d83610ad6565b9250827fffffffffffffffffffffffffffffffffffffffffffffffffffffffffffffffff0382111561124257611241611104565b5b828201905092915050565b600061125882610ad6565b91507fffffffffffffffffffffffffffffffffffffffffffffffffffffffffffffffff82141561128b5761128a611104565b5b600182019050919050565b7f4e487b7100000000000000000000000000000000000000000000000000000000600052603160045260246000fdfea26469706673582212209622eaa51b59746d956a2d6e83ef5e85687a3d523f2071d5dfde36139467163464736f6c63430008090033",
  "linkReferences": {},
  "deployedLinkReferences": {}
}